:060000000A128A110C280F
:10000800FE00030EF0000A08F1000A128A113E28C9
:100018000A128A110F28F20183010A128A11142880
:100028008B170B178B1607308316031381003B3091
:100038008312031381008316031306107208031D2D
:10004800262827282A2883120313061464307206E8
:10005800031D2F2830283328831203130610C830B5
:100068007206031D382839282228F20122280A128C
:100078008A110C280B1D4128422845280130F20717
:100088000B1171088A00700E8300FE0E7E0E0900A7
:08400000FF3FFF3FFF3FFF3FC0
:02400E00BA3FB7
:00000001FF
